:10000000000001203D02000095020000891300005D
:10001000990200009B0200009D0200000000000009
:100020000000000000000000000000009F0200002F
:10003000A102000000000000A3020000A5020000D1
:10004000A90200000D7D0000AD0200003D1500007A
:1000500061150000B3020000891F0000B702000014
:10006000B9020000BB020000BD020000BF02000098
:10007000C1020000C3020000C5020000C702000068
:10008000C90200000D110000CD020000A9150000FA
:10009000AD7F00004D110000D5020000D702000026
:1000A000D9020000DB02000001840000DF02000032
:1000B000953500008D2A0000A7020000A70200006D
:1000C000E5020000AD350000C535000085150000D3
:0C00D000ED020000892800009D410000A6
:1000DC00364937480A1A02D0072291438D463549D2
:1000EC0035480A1A06D00722914381F30988022267
:1000FC0082F3148831483249324A00F045F83248CC
:10010C003249334A00F040F832483349334A00F060
:10011C003BF833483349344A00F036F83348344915
:10012C00344A00F031F834483449354A00F02CF8A0
:10013C0034483549354A00F027F83548354900220E
:10014C0000F02DF834483549002200F028F83448E6
:10015C003449091A082903DB0022026004300160CB
:10016C00314A90471F482049884205D00268043024
:10017C0003B4904703BCF7E700208646EC4600200A
:10018C0000212A4A9047FEE7884207D0521A05D030
:10019C00037801300B700131013AF9D17047884274
:1001AC0002D002700130FAE7704700000000012015
:1001BC0000F80020000001200000012080A90000B0
:1001CC00000000203C090020F4020000F4020000B2
:1001DC00688F000080A900000000002000000020B3
:1001EC00688F0000688F0000688F0000688F000027
:1001FC00688F0000688F0000688F0000688F000017
:10020C0080A90000BCB200003C0900203C09002081
:10021C003C090020F8380020F8380020F83800207D
:10022C00F8380020F83A002061020000E146000096
:10023C000F484FF00701884385460E4880470E480B
:10024C00016841F470010160BFF34F8FBFF36F8FF2
:10025C00FFF73EBF09480A490A4A884207D0521A9A
:10026C0005D0037801300B700131013AF9D1704798
:10027C00000001209D5B000088ED00E0688F00000D
:10028C000000002000000020FEE7FEE7FEE7FEE78E
:10029C00FEE7FEE7FEE7FEE7FEE7FEE7FEE7FEE72A
:1002AC00FEE7FEE7FEE7FEE7FEE7FEE7FEE7FEE71A
:1002BC00FEE7FEE7FEE7FEE7FEE7FEE7FEE7FEE70A
:1002CC00FEE7FEE7FEE7FEE7FEE7FEE7FEE7FEE7FA
:1002DC00FEE7FEE7FEE7FEE7FEE7FEE7FEE7FEE7EA
:0802EC00FEE7FEE7FEE700BF9C
:1002F40000B589B0019000238DF81F3051E02E4BDA
:100304001A689DF81F30DB0013440693069B1B7884
:100314001A46012393400593284B1A68059B134002
:10032400002B39D0059BDA43244B1B681340234A26
:100334001360069B1B78184601F00AFE03468DF8ED
:100344001330069B1B781A46012393401A461C4B14
:100354001B6813409DF81320069909788A4093423C
:100364001AD19DF81330069A5278012A0CBF012243
:100374000022D2B293420CBF01230023DBB20393C9
:10038400069B5B68002B07D0069B5B68069A127875
:100394000399C9B2104698479DF81F3001338DF870
:1003A4001F30084B1B789DF81F209A42A7D300BF2B
:1003B40009B05DF804FB00BF3C0900206C09002073
:1003C400680900204009002000B585B001900B4663
:1003D4008DF803300122019B02FA03F303931E4BB1
:1003E400184600F04DFF0290029B002B30D11B4BAE
:1003F4001A68039B1340002B22D1019801F0A8FD39
:100404000346002B06D0164B1A68039B1343144A69
:10041400136006E0039BDA43114B1B681340104A38
:1004240013600E4B1A68039B13430C4A13600A486B
:100434000C4B1B680022194600F0F0FE029008E005
:10044400039BDA43054B1B681340044A136000E026
:1004540000BF05B05DF804FB480900206C090020CA
:10046400680900204409002000B589B003900B46B8
:1004740001928DF80B30019B042B01D8072351E026
:1004840001F06EFC034683F00103DBB2002B07D0BE
:1004940001F01EFC0790079B002B01D0079B41E055
:1004A400224A039B1360224A9DF80B301370214AA1
:1004B400019B1360204B00221A60204B00221A601B
:1004C40023E09DF80B30DB00039A134406930323C7
:1004D4008DF8143000238DF8153000238DF8163074
:1004E40000238DF81730069B9B788DF81530069BFA
:1004F4001B78184605AB124A194601F03DFC0790DB
:10050400079B002B01D0079B0CE09DF80B305A1E73
:100514008DF80B20002BD4D10A4A00210A4800F0A0
:100524004DFE0346184609B05DF804FB3C09002063
:100534004009002044090020680900206C090020BB
:10054400CD030000F5020000688F000000B583B001
:10055400114B1B68002B03D11049B62000F07EFF1D
:10056400002301930CE00C4B1A68019BDB0013443D
:100574001B780121184601F063FC019B01330193B0
:10058400074B1B781A46019B9A42ECD80023184665
:1005940003B05DF804FB00BF3C0900206C8F000031
:1005A4004009002000B589B0039002910192029B9A
:1005B4009BB2ADF81430019B0693039B079305ABE4
:1005C4001A46002144F2010000F050F800BF09B0BF
:1005D4005DF804FB86B003900291019201238DF82B
:1005E40017309DF81730204A039B13601E4A029B64
:1005F40053601D4A019B9360039B44F201029342A2
:1006040012D044F20202934222D1019B164AD360D3
:10061400154BDB681B881A46134B9A61124BDB6837
:100624005B68114AD36113E0019B0F4A13610E4BBF
:100634001B699B680C4A53610B4B1B691B881A4648
:10064400094B9A61084B1B695B68074AD36100BF79
:1006540072B600BF9DF81730DBB2002BFAD162B638
:1006640000BF06B0704700BF7009002000B587B016
:10067400039002910192039B44F20102934207D03A
:1006840044F20202934200D005E0019B059302E08C
:10069400019B049300BF084B1B6803F00103002B6C
:1006A40000D0FFDE019A02990398FFF793FF00BF81
:1006B40007B05DF804FB00BFF0ED00E082B0034634
:1006C4008DF8073007499DF907305B099DF807202D
:1006D40002F01F02012000FA02F241F8232000BFB9
:1006E40002B0704700E100E082B003468DF80730A5
:1006F40008499DF907305B099DF8072002F01F02A5
:10070400012000FA02F2203341F8232000BF02B096
:10071400704700BF00E100E082B003468DF8073067
:1007240008499DF907305B099DF8072002F01F0274
:10073400012000FA02F2403341F8232000BF02B046
:10074400704700BF00E100E082B003468DF8073037
:1007540008499DF907305B099DF8072002F01F0244
:10076400012000FA02F2603341F8232000BF02B0F6
:10077400704700BF00E100E082B0034600918DF8AD
:1007840007309DF90730002B0CDA0D499DF807302E
:1007940003F00F03043B009AD2B25201D2B20B44CD
:1007A4001A7609E007499DF90730009AD2B252013E
:1007B400D2B20B4483F8002300BF02B0704700BFDD
:1007C40000ED00E000E100E084B00190244B0393CD
:1007D400019B002B40D0234B1A680399019B00BF57
:1007E40000BF00BF00BF00BF00BF00BF00BF8A4200
:1007F4002FD000BF00BF00BF00BF00BF00BF00BFBD
:1008040000BF00BF00BF00BF00BF00BF00BF00BFEC
:1008140000BF00BF00BF00BF00BF00BF00BF00BFDC
:1008240000BF00BF00BF00BF00BF00BF00BF00BFCC
:1008340000BF00BF00BF00BF00BF00BF00BF00BFBC
:1008440000BF00BF00BF00BF00BF00BF00BF00BFAC
:1008540000BF013BC3D1019300BF04B0704700BF88
:100864000024F4001C09002000B583B00190064A5E
:10087400019BC2F8083507211120FFF77DFF00BF57
:1008840003B05DF804FB00BF0010014008B50D4B38
:100894004FF48032C3F844230A4B4FF48032C3F838
:1008A40004231120FFF750FF1120FFF707FF054B2A
:1008B40001221A602F20FFF787FF034B01221A70D1
:1008C40000BF08BD00100140AE0A002008B5112089
:1008D400FFF70AFF0E4B4FF48032C3F848230C4B4A
:1008E4004FF48032C3F80823094B01225A602F20A9
:1008F400FFF76AFF064B01229A60064B00221A603A
:100904002F20FFF761FF044B00221A7000BF08BDBF
:1009140000100140A00A0020AE0A0020024BD3F8C8
:1009240004351846704700BF0010014082B00190A2
:100934000091019A009BD31A23F07F43184602B01A
:100944007047000082B00190034A019BC2F8403511
:1009540000BF02B0704700BF0010014086B0019094
:10096400284B1B68002B03D1264A019B136045E0EA
:10097400019B1A68234B1B681B689A4210D8214BB1
:100984001B68204A12681168019A12688A1A1A6050
:100994001C4B1A68019BDA611A4A019B13602DE013
:1009A400019B1B680393174B1B680593154B1B682E
:1009B400049309E0049B1B68039AD31A0393049BD2
:1009C4000593049BDB690493049B002B04D0049BD4
:1009D4001A68039B9A42EDD3049B002B05D0049B19
:1009E4001A68039BD21A049B1A60019B039A1A602B
:1009F400019B049ADA61059B019ADA6100BF06B093
:100A0400704700BF9C0A002000B587B001902A4BB4
:100A14001B680393284B1B680593059B049308E00C
:100A2400049A019B9A4208D0049B0593049BDB69BA
:100A34000493049B002BF3D100E000BF049B002B24
:100A440001D1002333E0059A049B9A4214D11A4B36
:100A54001B68DB69184A1360174B1B68002B0BD10A
:100A6400164B01229A60164B00221A60154B012284
:100A74001A702F20FFF7A8FE049B1B680293049BA7
:100A8400DA69059BDA61059BDB690493049B002BFF
:100A940005D0049B1A68029B1A44049B1A60064BF7
:100AA4001B68039A9A4214BF01230023DBB2184641
:100AB40007B05DF804FB00BF9C0A00200010014051
:100AC400A00A0020AF0A002008B51120FFF724FE79
:100AD40000BF08BD08B51520FFF71EFE00BF08BD06
:100AE40000B583B00190019B5B69019A926910463D
:100AF400984700BF03B05DF804FB000000B585B063
:100B04002B4B1B68002B4ED000230193FFF706FFED
:100B14000246284B1B6819461046FFF707FF029050
:100B2400234B1B6803931DE0039B1A68029B9A42A4
:100B34001CD8039B1B68029AD31A0293039B1B685D
:100B4400019A13440193039B0093039BDB69039372
:100B5400009B1B7C002B05D0009B00221A7400987C
:100B6400FFF7BEFF039B002BDED100E000BF124B5A
:100B74001A78124B1B789A420CD1104B1B78013314
:100B8400DAB20E4B1A700D4B1B78022B02D10B4BB1
:100B940000221A70094B1B781946094A019B42F836
:100BA4002130FFF797FF00BF05B05DF804FB00BFDD
:100BB4009C0A0020A00A0020AC0A0020AD0A0020F4
:100BC400A40A002082B00190184B1A78184B1B78A5
:100BD4009A4223D0154B1B780133DAB2134B1A70A7
:100BE400124B1B78022B02D1104B00221A700F4BB0
:100BF4001B781A460F4B53F82220019B1A60019B65
:100C04001A680D4B1B6813440B4A13600A4B1B688C
:100C140023F07F43084A1360012303E0019B002271
:100C24001A600023184602B0704700BFAC0A0020C7
:100C3400AD0A0020A40A0020A00A002088B0039076
:100C4400029101920023079338E0204B1B6806931E
:100C5400069B1A68039B9A4206D9069B1A68039B53
:100C6400D21A069B1A602DE0069B1B68039AD31ABE
:100C74000393069B1B68079A13440793069B002261
:100C84001A60124B1B680593069BDB690F4A1360BD
:100C9400069BDB68002B11D0029A079B134423F0B8
:100CA4007F42069B5A60069BDA68069B9A60019B0A
:100CB4001A68069BDA61019B059A1A60034B1B684C
:100CC400002BC2D100BF08B0704700BF9C0A0020AF
:100CD40000B589B0019000238DF81F30664B1B6866
:100CE4000593AAE0019B002B05D0019B0693069B6C
:100CF400DB69019361E0614B1B781A4613465B0084
:100D04001344DB005D4A1344043304935B4B1B78A8
:100D14000133DAB2594B1A70584B1A78574B9B78F7
:100D24009A4202D1554B00221A70049B5B680693C9
:100D3400049B1B78022B04D0032B1BD0012B1FD048
:100D44001DE0049B5B681846FFF75EFE0346002B1C
:100D540002D001238DF81F30069B00221A746CE028
:100D6400454B1B680393039B00221A74039BDB69A6
:100D7400414A1360404B1B68002BF1D15DE05CE0FD
:100D840000BF069B1B7C002B00D056E0049B9A6896
:100D9400069B5A60049BDA68069B9A60049B1A6956
:100DA400069BDA60049B5A69069B9A61344B1B7854
:100DB400002B02D0069B00225A60069B5A68314BD6
:100DC4001B68D31A23F07F432F4A93420ED8069B05
:100DD4005A682C4B1B6819461046FFF7A7FD0246BC
:100DE400069B9B681A44069B1A6017E0254B1A68F9
:100DF400069B5B6819461046FFF798FD0290069B18
:100E04009A68029B9A4206D9069B9A68029BD21A58
:100E1400069B1A6002E0069B00221A60069B0022D1
:100E24005A60069B00229A60069B01221A74069B54
:100E34000022DA610698FFF791FD019B002B7FF4F5
:100E440051AF0E4B1A780D4B5B789A427FF44AAF40
:100E54009DF81F30002B04D1074B1A68059B9A425A
:100E640001D0012300E0002303F00103DBB21846A4
:100E740009B05DF804FB00BF9C0A00209009002023
:100E8400AF0A0020A00A0020FEFF7F0010B588B042
:100E94000190254B1B68002B43D0234B1B681B6818
:100EA4000793FFF73BFD0690204B1B6805930599BC
:100EB4000698FFF73BFD0346033304931C4B1B7852
:100EC40083F00103DBB2002B01D0FFF7DFFC049AAF
:100ED400079B934238BF1346059A13440593059B19
:100EE40023F07F4305930598FFF72CFDFFF716FDCC
:100EF400039006990398FFF719FD0346DC1C069935
:100F04000598FFF713FD03469C420AD9FFF706FD37
:100F140003461846FFF716FD2F20FFF755FCFFF791
:100F2400D3FD00BF08B010BD9C0A0020A00A002019
:100F3400AE0A002000B587B00023019300238DF88A
:100F44001730194B1B680493184B1B6803936B46AB
:100F54001846FFF737FE03468DF80B309DF80B302B
:100F6400002B08D0009B01AA04991846FFF766FEDF
:100F740001238DF81730019B1846FFF7A9FE03469D
:100F8400002B02D001238DF817309DF81730002B69
:100F940002D00398FFF77AFF054B00221A7000BFB6
:100FA40007B05DF804FB00BFA00A00209C0A0020E3
:100FB400AF0A002082B003468DF80730034A9DF83B
:100FC4000730537000BF02B0704700BF9009002083
:100FD40084B00190144B5B7801338DF80F30124BC1
:100FE4009B789DF80F209A4202D100238DF80F3090
:100FF4000D4B1B789DF80F209A4201D100230FE07E
:10100400019B9DF80F201A70074B5B781A46134614
:101014005B001344DB00044A134404330293029B31
:10102400184604B0704700BF9009002000B589B08D
:10103400039002910192009300230793002000F093
:1010440059F90DF117031846FFF7C2FF0690069BE6
:10105400002B02D10423079318E0069B01221A7087
:10106400069B039A5A60FFF759FC0246069B9A6056
:10107400069B029ADA60069B019A1A61069B009A03
:101084005A619DF817301846FFF794FF002000F0CE
:1010940045F9079B002B01D1FFF71CFD079B184660
:1010A40009B05DF804FB00B587B001900B468DF8DC
:1010B400033000230593002000F01CF90DF10F0309
:1010C4001846FFF785FF0490049B002B02D10423EC
:1010D40005930BE0049B9DF803201A70049B019A6E
:1010E4005A609DF80F301846FFF764FF002000F0A7
:1010F40015F9059B002B01D1FFF7ECFC059B184665
:1011040007B05DF804FB000008B50E4B0022C3F8DD
:1011140040210C4B0022C3F844210A4B0022C3F89F
:101124004821084B0022C3F84C21064B0022C3F887
:101134000021044B0022C3F80421FFF7DFFC00BFA9
:1011440008BD00BF0010014008B5FFF7F3FE00BF63
:1011540008BD000008B5FFF7B9FB134B00221A7055
:10116400114B00225A70104B0B229A700F4B002225
:101174001A600F4B00221A700E4B00221A701520B1
:10118400FFF7E2FA07211520FFF7F6FA1520FFF71B
:1011940095FA0020FFF768FBFFF7C0FB0246064BF9
:1011A4001A600023184608BD900900209C0A0020FC
:1011B400AC0A0020AD0A0020A00A002086B00390EB
:1011C4000B4601928DF80B30134B9B78002B01D109
:1011D40008231EE0019B002B01D1072319E0039B88
:1011E400002B01D1072314E0039B1B681B7C002BFD
:1011F40001D008230DE0039B1B680593059B002287
:101204001A74059B9DF80B205A74059B019A5A6128
:101214000023184606B070479009002000B587B037
:10122400039002910192039B0593144B9B78002B2E
:1012340001D108231EE0039B002B01D1082319E0F0
:10124400029B042B01D8072314E0059B5B69002B48
:1012540001D108230EE0059B5B7C012B01D1029B8D
:1012640000E000230493019B049A02990598FFF778
:10127400DDFE0346184607B05DF804FB9009002024
:1012840000B585B00190019B03930D4B9B78002B17
:1012940001D1082310E0019B002B03D0039B5B6961
:1012A400002B01D1082307E0039B00221A740221BA
:1012B4000398FFF7F8FE0346184605B05DF804FBF3
:1012C4009009002072B6034B1B680133014A136076
:1012D40000BF7047B00A0020054B1B68013B044A5D
:1012E4001360034B1B68002B00D162B600BF70472C
:1012F400B00A002000B583B0019000F025F8034641
:10130400012B03D00449432000F0A8F8FFF7DAFFCB
:1013140000BF03B05DF804FBCC8F000000B583B0C0
:1013240003468DF8073000F00FF80346012B03D075
:101334000449512000F092F8FFF7CEFF00BF03B03C
:101344005DF804FBCC8F000084B0EFF305830193B8
:10135400019BC3F308030393039B002B0DD1EFF30D
:1013640014830093009B0293029B03F00103002B60
:101374000CBF01230023DBB200E00123184604B0B4
:10138400704700001EF0040F1CBFEFF309800AE051
:10139400EFF308800849094A884201D8904202D8EC
:1013A4008D464FF000006B46854608B5044B9847C0
:1013B400BDE808409D4670470000012000F8002069
:1013C4000514000000BF00BFBFF34F8F0549054B54
:1013D400DB6803F4E062044B1343CB60BFF34F8F2D
:1013E40000BFFDE700ED00E00400FA0500B583B09E
:1013F4000190FFF7E9FF00BF03B05DF804FB0000B4
:1014040000B587B00190019B0493124B9B6A039330
:10141400104BDB6A002305930AE00122059B02FAC4
:1014240003F31A46039B1340002B059B01330593DA
:10143400059B192BF1D9084B1B6803F00103002B02
:1014440000D0FFDE0198FFF7D1FF00BF07B05DF8C1
:1014540004FB00BF00ED00E0F0ED00E000B585B056
:1014640003460091ADF80630BDF80630ADF80830FB
:10147400009B039302AB1A46002144F20200FFF7DB
:10148400F5F800BF05B05DF804FB000082B0034628
:101494008DF8073007499DF907305B099DF807204F
:1014A40002F01F02012000FA02F241F8232000BFDB
:1014B40002B0704700E100E082B003468DF80730C7
:1014C40008499DF907305B099DF8072002F01F02C7
:1014D400012000FA02F2603341F8232000BF02B079
:1014E400704700BF00E100E082B0034600918DF830
:1014F40007309DF90730002B0CDA0D499DF80730B1
:1015040003F00F03043B009AD2B25201D2B20B444F
:101514001A7609E007499DF90730009AD2B25201C0
:10152400D2B20B4483F8002300BF02B0704700BF5F
:1015340000ED00E000E100E008B5064B1B68002B5D
:1015440003D105495520FFF789FF024B1B689847D3
:1015540000BF08BDB40A00203490000008B5064B53
:101564001B68002B03D105496920FFF777FF024B65
:101574001B68984700BF08BDBC0A002034900000D7
:1015840008B5064B1B68002B03D105497920FFF7EA
:1015940065FF024B1B68984700BF08BDC40A0020C2
:1015A4003490000008B5064B1B68002B03D1054995
:1015B4008920FFF753FF024B1B68984700BF08BD03
:1015C400CC0A00203490000000B585B00190009151
:1015D40000238DF80F300020FFF78CFE019B1B7950
:1015E400002B03D001238DF80F3002E0019B012270
:1015F4001A710020FFF792FE9DF80F30002B03D0E4
:1016040011230293029B05E0019B009A1A600023B8
:101614000293029B184605B05DF804FB00B585B043
:1016240001900091019B174A934205D100991648F5
:10163400FFF7CAFF034620E0019BB3F1402F05D119
:1016440000991248FFF7C0FF034616E0019B104AB9
:10165400934205D100990F48FFF7B6FF03460CE00B
:10166400019B0D4A934205D100990C48FFF7ACFF4A
:10167400034602E007230393039B184605B05DF875
:1016840004FB00BF00300040B40A0020BC0A002064
:1016940000300240C40A002000300140CC0A00207F
:1016A40000B583B003460A468DF8073013468DF81B
:1016B40006309DF80630072B04D90D494FF492707B
:1016C400FFF7CCFE9DF806209DF907301146184619
:1016D400FFF70AFF9DF907301846FFF7EDFE9DF965
:1016E40007301846FFF7D2FE00BF03B05DF804FBD5
:1016F4003490000000B583B00346ADF80630BDF861
:101704000630184600F026F803461B68012B0CBF70
:1017140001230023DBB2184603B05DF804FB00B5D7
:1017240085B00346ADF80630BDF80630184600F023
:1017340011F803461A4600231360BDF80630184614
:1017440000F008F803461B680393039B00BF05B031
:101754005DF804FB82B00346ADF80630BDF80630F0
:1017640003F1804303F5C043184602B070470000FC
:1017740082B00190034A019BC2F8043300BF02B057
:10178400704700BF0060004082B00190034BD3F863
:101794000423019B1340184602B0704700600040C8
:1017A40082B001900849084A019B03F5A27352F8DC
:1017B400233043F00102019B03F5A27341F8232077
:1017C40000BF02B0704700BF0060004084B00390C7
:1017D400029113468DF807301449144A039B03F50C
:1017E400A27352F8233023F4473323F44073039A4B
:1017F40002F5A27241F822300C480C4A039B03F50F
:10180400A27352F82320029B1B0203F4F8519DF8A3
:1018140007301B0403F440330B431A43039B03F5C3
:10182400A27340F8232000BF04B07047006000405A
:1018340082B00190054A019B03F5A27352F823304C
:101844001B0A03F01F03184602B0704700600040F3
:1018540082B00190064A019B03F5A27352F823302B
:101864001B0C03F00303DBB2184602B0704700BF41
:101874000060004000B583B00190019B1B681F2BE2
:1018840004D905494FF4E870FFF7E8FD4FF0A04391
:10189400184603B05DF804FB9C90000000B585B0C9
:1018A4000190084611461A4603468DF803300B464C
:1018B4008DF8023013468DF8013001AB1846FFF75E
:1018C400D9FF0390019A9DF803109DF802305B0044
:1018D40019439DF801309B0019439DF818301B02F1
:1018E40019439DF81C301B041943039B02F5E07255
:1018F40043F8221000BF05B05DF804FB00B585B0C5
:1019040003900B468DF80B309DF80B2000230193B8
:10191400002300931346002200210398FFF7BEFF23
:1019240000BF05B05DF804FB00B585B0019001ABC4
:101934001846FFF79FFF0390019A039B02F5E0729C
:1019440053F8223023F002030293019A039B02F519
:10195400E072029943F8221000BF05B05DF804FB61
:1019640000B585B001900B468DF8033001AB1846E5
:10197400FFF780FF0390019A0199039B01F5E07141
:1019840053F8213023F44031039B02F5E07243F80D
:101994002210019A0199039B01F5E07153F821305B
:1019A4009DF8031009041943039B02F5E07243F800
:1019B400221000BF05B05DF804FB00B585B00190AE
:1019C40001AB1846FFF756FF0390039800F020F888
:1019D4000246019B22FA03F303F00103184605B003
:1019E4005DF804FB00B585B0019001AB1846FFF724
:1019F40041FF0390019A039B02F5E07253F82230F1
:101A04001B0C03F00303DBB2184605B05DF804FBBE
:101A140082B00190019BD3F81035184602B070478C
:101A240000B587B00390029101924FF0A043049354
:101A3400039A029B1344012B04D912494FF43A70C0
:101A4400FFF70CFD039B059311E0059B9B0006AA81
:101A5400134453F8083C1846FFF7DAFF0246019B8B
:101A64001A60019B04330193059B01330593039A88
:101A7400029B1A44059B9A42E7D800BF07B05DF861
:101A840004FB00BF9C90000084B001900091009B77
:101A94000393019BDB080293019B03F0070301936B
:101AA4000122019B02FA03F30399029A0A44127871
:101AB4001340184604B0704784B001900091009B15
:101AC4000393019BDB080293019B03F0070301933B
:101AD400039A029B13440399029A0A44127851B25E
:101AE4000120019A00FA02F252B20A4352B2D2B26F
:101AF4001A7000BF04B0704782B001900C4A019B79
:101B040013443C3393F90030002B09DB084A019B52
:101B140013443C3393F90030072B01DC012300E02C
:101B2400002303F00103DBB2184602B0704700BF84
:101B3400D40A002082B00190064A019B13443C332E
:101B440093F90030072BCCBF01230023DBB21846E6
:101B540002B07047D40A002082B00190064A019B6B
:101B640013443C3393F90030DB43DBB2DB09DBB2D3
:101B7400184602B0704700BFD40A002084B0039016
:101B8400029101928DF80330029B59B20E4A039BD5
:101B940013443C330A461A700B49029B019A41F8DC
:101BA40023209DF8033083F00103DBB2002B08D01F
:101BB400029B083B039A51B2034A13440A4683F832
:101BC4005C2000BF04B07047D40A002082B00190AA
:101BD400044A019B13443C33FF221A7000BF02B035
:101BE400704700BFD40A002082B00190044A019BD0
:101BF40013443C3393F90030184602B0704700BFD9
:101C0400D40A002082B00190034A019B52F8233089
:101C1400184602B0704700BFD40A002000B589B04E
:101C24000390029113468DF80730FF238DF81F307F
:101C34009DF80730002B01D0002300E00823059312
:101C44009DF80730002B01D0082300E00F230493F4
:101C5400059B069314E00F4A069B52F82330B3F118
:101C6400FF3F0AD19DF80730029A06990398FFF7BF
:101C740085FF069B8DF81F3006E0069B0133069313
:101C8400069A049B9A42E6D39DF91F30184609B080
:101C94005DF804FBD40A002082B003468DF80730B7
:101CA4009DF80730094A4FF0FF3142F823109DF8A0
:101CB4000730072B07D99DF80730083B034A134424
:101CC400FF2283F85C2000BF02B07047D40A0020D2
:101CD40000B583B0214B93F86330002B03D0082365
:101CE4000093009B36E000238DF8073009E09DF84F
:101CF40007301846FFF76AFF9DF8073001338DF867
:101D040007309DF807301F2BF1D900238DF80730D9
:101D140009E09DF807301846FFF7BEFF9DF807302D
:101D240001338DF807309DF807300E2BF1D90721C8
:101D34000620FFF7B5FC4FF4BE70FFF7F0FC4FF040
:101D44000040FFF715FD054B012283F863200023B3
:101D54000093009B184603B05DF804FBD40A0020EE
:101D6400044B93F86330002B14BF01230023DBB230
:101D740018467047D40A002000B587B0039002913A
:101D84000192039B1F2B04D92B4940F2F710FFF754
:101D940065FB002305930398FFF7DEFE0346002B43
:101DA40002D00823059341E0029BDB781A4601998F
:101DB4000398FFF733FF03468DF813309DF9133072
:101DC400B3F1FF3F30D0029B9B78002B03D00398E4
:101DD400FFF7AAFD05E0029B5B7819460398FFF71D
:101DE4008DFD029BDB78002B08D09DF91300029B2C
:101DF4001B781A460399FFF7E9FC17E09DF91330A5
:101E0400083B9DF91320083A0C490A4492F95C10E6
:101E1400029A1278920152B20A4351B2074A134409
:101E24000A4683F85C2001E004230593059B1846C9
:101E340007B05DF804FB00BFD4900000D40A002072
:101E440000B587B001900B468DF80330019B1F2B22
:101E540004D93D4940F22520FFF700FB0198FFF724
:101E64007BFE0346002B04D1374940F22620FFF7BE
:101E7400F5FA0198FFF75EFE0346002B2FD0019878
:101E8400FFF7B2FE0346083B304A134493F95C3033
:101E94008DF816309DF816309B098DF815309DF895
:101EA4001530032B0BD10198FFF787FD0346002B58
:101EB40001D0032300E002238DF8173008E09DF8D9
:101EC4001530012B01D1022300E003238DF81730D4
:101ED4009DF8173019460198FFF742FD30E001984C
:101EE400FFF70AFE0346002B2AD00198FFF77CFE79
:101EF40003460493049B9BB240339BB29B00ADF812
:101F04000E30049B1846FFF74BFCBDF80E30184604
:101F1400FFF705FC9DF80330002B11D00198FFF763
:101F240063FE03461846FFF76DFE0290029B002BEA
:101F340006D00122049B02FA03F31846FFF718FCAB
:101F440000BF07B05DF804FBD4900000D40A002061
:101F540000B583B00190019B1F2B04D9084940F2BE
:101F64007220FFF77BFA0198FFF727FD0346002B49
:101F740014BF01230023DBB2184603B05DF804FB51
:101F8400D490000000B595B000231393002303936D
:101F94004FF48073ADF8463001231093002312935D
:101FA40021E0BDF846301846FFF7A4FB0346002B9A
:101FB4000ED01098FFF7E8FB0346002B08D0BDF8BD
:101FC40046301846FFF7ABFB139A109B1343139349
:101FD400109B5B001093BDF846300433ADF84630D7
:101FE400129B01331293129B072BDAD94FF4BE7064
:101FF400FFF780FB0346002B0DD04FF4BE70FFF7B4
:102004008EFB139B43F00043139303AB1A46012149
:102014000020FFF705FD139BDBB2002B29D0012321
:1020240010930023129321E0109A139B1340002B6A
:1020340016D01298FFF7FCFB0D901298FFF708FCDE
:1020440003468DF833301298FFF7DCFD0B900B9BA1
:10205400002B05D09DF833200B9B11460D98984713
:10206400109B5B001093129B01331293129B072B5E
:10207400DAD9139B002B80F2EE8000238DF83B30DD
:102084000023029300230F930AE00F9B9B0014AAE2
:1020940013444FF0FF3243F84C2C0F9B01330F9342
:1020A4000F9B002BF1D000238DF83B3000231293BB
:1020B40078E06B4A129B13445C3393F900308DF83B
:1020C4002B309DF82B3023F0C0030993644A129BF4
:1020D40013445C3393F90030B3F1FF3F5FD001AB9D
:1020E40019460998FFF7D0FC0346002B57D09DF8FA
:1020F4002B309B098DF823300998FFF775FD0346B3
:102104001846FFF77FFD0790079B002B03D19DF82E
:102114002330032B43D19DF82330032B04D102AB8E
:1021240019460998FFF7C8FC0998FFF75BFC0346BA
:102134008DF81B3003AB19460998FFF7A5FC0590F1
:10214400059B002B03D09DF81B30022B06D0059B6A
:10215400002B24D19DF81B30032B20D19DF8233074
:10216400032B13D19DF81B30022B01D1032300E074
:1021740002238DF813309DF8133019460998FFF7A0
:10218400EFFB9DF83B3001338DF83B30079B002B70
:1021940005D09DF82320079B114609989847129B68
:1021A40001331293129B062B83D99DF83B30002BED
:1021B4004CD001238DF83A306B461A460121002099
:1021C400FFF72EFC00230F9314E00F9B9B0014AA2F
:1021D400134453F8502C0F9B9B0014A90B4453F841
:1021E400443C9A4203D000238DF83A3005E00F9B1B
:1021F40001330F930F9B002BE7D09DF83A30002B4F
:1022040003D000238DF83B3020E000230F931AE025
:102214000F9B9B0014AA134453F8502C0F9B9B0054
:1022240014A90B4443F8442C0F9B9B0014AA134499
:1022340053F8482C0F9B9B0014A90B4443F84C2CD7
:102244000F9B01330F930F9B002BE1D09DF83B3084
:10225400002B7FF428AF00BF15B05DF804FB00BF6E
:10226400D40A002082B001900B468DF803309DF80B
:102274000330019A134401221A6000BF02B0704770
:1022840084B001900B46ADF80230BDF80230019ADB
:10229400134400221A60BDF80230019A13441B68EB
:1022A4000393039B00BF04B0704782B001900B46B8
:1022B400ADF80230BDF80230019A13441B68002BBC
:1022C40014BF01230023DBB2184602B0704782B06A
:1022D40001900091019B009AC3F8042300BF02B04F
:1022E400704782B00190019B0122C3F8002500BF12
:1022F40002B0704784B00390029101920093039B53
:10230400029AC3F86425039B019AC3F86825039BCA
:10231400009AC3F86025039B049AC3F87025039BB5
:10232400059AC3F86C2500BF04B0704782B00190D1
:10233400084611461A4603468DF803300B468DF8BD
:10234400023013468DF801309DF80330002B21D163
:102354009DF80830012B03D19DF81430012B17D0C0
:102364009DF80830022B15D19DF81430002B0FD0A6
:102374009DF81430022B0BD09DF81430042B07D099
:102384009DF81430062B03D09DF81430082B01D18E
:1023940000232EE09DF80320019BC3F804259DF83B
:1023A4000220019BC3F824259DF80120019BC3F85A
:1023B40020259DF80820019BC3F81C259DF80C20BE
:1023C400019BC3F828259DF81420019BC3F8182508
:1023D400049B002B04D1019B0022C3F8102507E0C5
:1023E400049A019BC3F81425019B0122C3F810250C
:1023F4000123184602B0704700B585B003900192DE
:1024040000930B46ADF80A30BDF80A20039BC3F8CD
:1024140050250199039800F01CF8019B002B14BF70
:1024240001230023DBB21A46039BC3F80825009955
:10243400039800F020F8009B002B14BF0123002315
:10244400DBB21A46039BC3F80C2500BF05B05DF848
:1024540004FB82B001900091009A019BC3F83825D7
:1024640000BF02B0704782B00190019BD3F83835A9
:10247400184602B0704782B001900091009A019B07
:10248400C3F8402500BF02B0704782B00190019BA1
:10249400D3F84035184602B0704782B00190019BD2
:1024A40003F06043B3F1005F0CBF01230023DBB2F0
:1024B400184602B07047000000B583B00190019B3C
:1024C4001B681F2B04D905494FF4E870FEF7C6FFBB
:1024D4004FF0A043184603B05DF804FB3C910000A4
:1024E40000B585B00190084611461A4603468DF89A
:1024F40003300B468DF8023013468DF8013001ABE2
:102504001846FFF7D9FF0390019A9DF803109DF830
:1025140002305B0019439DF801309B0019439DF87C
:1025240018301B0219439DF81C301B041943039BEC
:1025340002F5E07243F8221000BF05B05DF804FB19
:1025440000B585B00390002301930023009300237A
:10255400012201210398FFF7C3FF00BF05B05DF816
:1025640004FB00B585B003900B468DF80B309DF845
:102574000B20002301930023009313460022002123
:102584000398FFF7ADFF00BF05B05DF804FB000042
:1025940000B589B00390039B9B79002B0AD1039B60
:1025A4001B781846FFF7CCFF039B5B781846FFF7B0
:1025B400C7FF0BE0039B1B7800211846FFF7D1FFF0
:1025C400039B5B7800211846FFF7CBFF039B9B78A6
:1025D400FF2B06D0039B9B7807930798FFF7B0FF68
:1025E40002E04FF0FF330793039BDB78FF2B06D009
:1025F400039BDB7806930698FFF7A2FF02E04FF0F7
:10260400FF330693039B1B79FF2B07D0039B1B7996
:10261400059300210598FFF7A4FF02E04FF0FF3374
:102624000593039B1B781946039B5B781A46059B0D
:102634000193069B0093079B0348FFF75BFE00BFD3
:1026440009B05DF804FB00BF0050024070B588B0CB
:1026540005900491049B002B03D124499320FEF799
:10266400FDFE234B1B79002B03D008230793079B04
:1026740038E0059B002B01D11E4B0593059B9C79EB
:10268400059BDD79059B1E7A059B5B7A059A927AF8
:102694000599C9680598007C039002910192009302
:1026A40033462A4621461448FFF740FE034683F08A
:1026B4000103DBB2002B03D007230793079B11E030
:1026C4000598FFF765FF0A4A049B1360059B5B7935
:1026D40019462520FEF7E4FF054B01221A71002359
:1026E4000793079B184608B070BD00BF74910000A3
:1026F400380B0020D49100000050024000B587B090
:102704000390029111461A460B46ADF80630134663
:102714008DF80530039B002B06D1029B002B03D1BF
:102724005549D220FEF79AFEBDF806305B08ADF895
:102734001630BDF81630002B03D14F49D520FEF7D3
:102744008DFE4E4B1B79012B01D0082390E0039B97
:10275400002B0CD00398FFF7A0FE034683F001037F
:10276400DBB2002B03D010230493049B80E0029B74
:10277400002B0CD00298FFF790FE034683F0010370
:10278400DBB2002B03D010230493049B70E0BDF84C
:102794001610029B039A3A48FFF72EFE374A039B12
:1027A4009360364A029BD360344ABDF81630D38016
:1027B400324A537943F0080353719DF8053003F00E
:1027C4000103002B17D02D4B9B68002B13D02B4BF0
:1027D400DB68002B0FD0294A537943F0010353716E
:1027E400264A53796FF341035371244A53796FF3A3
:1027F4008203537104E0214A53796FF30003537148
:102804001F48FFF76EFD1D4B02221A711B4BDB683C
:10281400002B18D0194B5B7903F00103DBB2002BBA
:1028240009D0164BD868154BDB889B001A4600214B
:1028340005F0A6FF07E0114B1B68104AD1680F4A48
:10284400D288002098474FF482710D48FFF718FD95
:102854004FF48A710A48FFF713FD22210848FFF755
:1028640036FD00210648FFF7FDFC00230493049B7A
:10287400184607B05DF804FB74910000380B002083
:102884000050024030B585B0002303930023029327
:102894004FF48A716048FFF708FD0346002B26D0E9
:1028A4004FF48A715C48FFF7EBFC5C4BDB68002B50
:1028B4001DD05948FFF7E9FD0246584BDB689A42A0
:1028C40007D1564BDA68554BDB889B0013440193C0
:1028D40002E0524BDB68019301994F48FFF7CBFDAF
:1028E4004E4A537943F004035371019B02934FF40E
:1028F40082714948FFF7D9FC0346002B3DD04FF4C1
:1029040082714548FFF7BCFC444B9B68002B34D0D4
:102914004148FFF7A8FD0246404B9B689A4207D105
:102924003E4B9A683D4BDB889B001344009302E0C6
:102934003A4B9B68009300993748FFF78AFD374A62
:10294400537943F002035371344B5B7903F008036A
:10295400DBB2002B0FD0314B5B79C3F30003DBB246
:1029640083F00103DBB2002B05D02C4A53796FF3BB
:10297400C303537101E0009B0393284B5B79C3F3BA
:102984000003DBB283F00103DBB2002B0DD0039B09
:10299400002B02D1029B002B3BD0204B1B681F4A0B
:1029A400D28802990398984733E01C4B5B7903F073
:1029B4000203DBB2002B2CD0184B5B7903F0040329
:1029C400DBB2002B25D0154A53796FF341035371C1
:1029D400124A53796FF382035371104B5B7903F0FE
:1029E4000803DBB2002B05D00C4A53796FF3C30301
:1029F40053710EE0094B1C680748FFF734FD054688
:102A04000548FFF742FD0146044BDB881A46284679
:102A1400A04700BF05B030BD00500240380B002075
:102A240082B00346ADF80630BDF8063003F18043AA
:102A340003F5E8331B68002B14BF01230023DBB22A
:102A4400184602B0704784B00346ADF80630BDF8AE
:102A5400063003F1804303F5E83300221A60BDF821
:102A6400063003F1804303F5E8331B680393039BAB
:102A740000BF04B070470000024B0022C3F80025D9
:102A840000BF704700D0014000B58BB04FF4807098
:102A9400FFF7C6FF0346002B68D04FF48070FFF7A2
:102AA400D2FF6C4B9B7C8DF827306A4B9B7C03F0E8
:102AB4000103002B0CBF01230023DBB28DF8263069
:102AC4009DF82630634A9B0013445B68002B04D1B5
:102AD400604B5B7CDBB2022B2BD100238DF82030C2
:102AE4005C4B0022DA745B4B5B7CDBB2022B05D1BE
:102AF40000230793574B01225A7411E09DF82730A5
:102B0400544A9B0013445B6807939DF82730514A4D
:102B14009B00134400225A604E4A9DF82630937459
:102B240001238DF818304B4B1B6806AA10469847B2
:102B340013E0484BDB7C002B0FD101238DF82030B0
:102B44000023079300238DF81830424B0122DA74D6
:102B5400404B1B6806AA104698473E4B5B7CDBB291
:102B6400022B5DD13B4B01225A7459E04FF4827021
:102B7400FFF756FF0346002B52D04FF48270FFF745
:102B840062FFFFF779FF334B00225A7400238DF85C
:102B9400143000238DF80C302E4B9B7C2D4A9B0067
:102BA40013445B68002B12D02A4B9B7C294A9B0060
:102BB40013445B680493274B9B7C264A9B00134475
:102BC40000225A60234B1B6803AA10469847214BE6
:102BD4009B7C03F00103002B0CBF01230023DBB219
:102BE4008DF825309DF825301A4A9B0013445B6804
:102BF400002B12D09DF82530164A9B0013445B68C5
:102C040004939DF82530134A9B00134400225A6014
:102C1400104B1B6803AA104698470E4B00229A7467
:102C24000C4B5B7DDBB2002B0FD000230193002300
:102C34008DF8083001238DF80030064B00225A75B8
:102C4400044B1B686A461046984700BF0BB05DF8FA
:102C540004FB00BF480B002082B001900B468DF8A6
:102C640003309DF80330019A134401221A6000BF17
:102C740002B0704782B001900B468DF803309DF886
:102C84000320019B1344184602B0704784B001909E
:102C94000B46ADF80230BDF80230019A134400220D
:102CA4001A60BDF80230019A13441B680393039B16
:102CB40000BF04B0704782B001900B46ADF80230FB
:102CC400BDF80230019A13441B68002B14BF012382
:102CD4000023DBB2184602B0704782B00190009125
:102CE400019B009AC3F8002200BF02B0704782B073
:102CF40001900091019B009AC3F8002300BF02B029
:102D0400704782B00190019B0122C3F8002500BFE7
:102D140002B0704784B00190009100238DF80F3009
:102D240011E09DF80F209DF80F309B0000990B4493
:102D34001968019B02F5AC7243F822109DF80F301C
:102D440001338DF80F309DF80F30032BE9D900BF04
:102D540004B0704700B583B00190084611461A4686
:102D640003468DF803300B468DF802301346ADF858
:102D74000030BDF90030002B04DA0C4940F26E201B
:102D8400FEF76CFB9DF80320019BC3F80C259DF80E
:102D94000220019BC3F80425BDF80020019BC3F861
:102DA400082500BF03B05DF804FB00BFE8910000F4
:102DB40000B585B003900B4601928DF80B30019B52
:102DC400002B04D1144940F27920FEF747FB019B04
:102DD4001A689DF80B301946039800F01FF8019B00
:102DE4009A889DF80B301946039800F03DF8019B32
:102DF4009A689DF80B301946039800F069F8019B16
:102E0400DA689DF80B301946039800F089F800BF82
:102E140005B05DF804FB00BFE891000000B585B083
:102E240003900B4601928DF80B309DF80B30012B6B
:102E340004D90C4940F28520FEF710FB019B002BBE
:102E440004D1084940F28620FEF708FB9DF80B30B8
:102E5400019A039929335B010B441A6000BF05B042
:102E64005DF804FBE891000000B583B001900B46C7
:102E74008DF803301346ADF800309DF80330012B74
:102E840004D9124940F28E20FEF7E8FABDF800306A
:102E9400002B04D10D4940F28F20FEF7DFFABDF973
:102EA4000030002B04DA09494FF42470FEF7D6FAF7
:102EB4009DF80330BDF80020019929335B010B44D0
:102EC40004331A6000BF03B05DF804FBE89100000E
:102ED40000B585B003900B4601928DF80B309DF838
:102EE4000B30012B04D90D494FF42670FEF7B6FAC6
:102EF400019BB3F1807F04D3084940F29920FEF787
:102F0400ADFA9DF80B30039A5B01134403F5A563F6
:102F1400019A1A6000BF05B05DF804FBE891000057
:102F240000B585B003900B4601928DF80B309DF8E7
:102F34000B30012B04D90D4940F2A120FEF78EFA83
:102F4400019BB3F1807F04D3084940F2A220FEF72D
:102F540085FA9DF80B30039A5B01134403F22C535A
:102F6400019A1A6000BF05B05DF804FBE891000007
:102F740082B001900B468DF8033013468DF8023071
:102F84009DF803209DF802301B021A43019BC3F8ED
:102F9400102500BF02B0704782B001900B46ADF817
:102FA4000230BDF80220019BC3F8142500BF02B013
:102FB400704784B00190019B1B0B8DF80F309DF975
:102FC4000F30184604B0704782B00190019B03F0A3
:102FD4006043B3F1005F0CBF01230023DBB218464A
:102FE40002B0704700B583B00190019B1B681F2B92
:102FF40004D905494FF4E870FEF730FA4FF0A043C6
:10300400184603B05DF804FB2092000000B585B0BB
:103014000190084611461A4603468DF803300B46C4
:103024008DF8023013468DF8013001AB1846FFF7D6
:10303400D9FF0390019A9DF803109DF802305B00BC
:1030440019439DF801309B0019439DF818301B0269
:1030540019439DF81C301B041943039B02F5E072CD
:1030640043F8221000BF05B05DF804FB00B585B03D
:1030740003900023019300230093002301220121E4
:103084000398FFF7C3FF00BF05B05DF804FB00B56C
:1030940085B0019001AB1846FFF7A4FF0390019B94
:1030A400012202FA03F31946039800F018F800BF4E
:1030B40005B05DF804FB00B585B0019001AB18467E
:1030C400FFF790FF0390019B012202FA03F31946D4
:1030D400039800F00EF800BF05B05DF804FB82B061
:1030E40001900091019B009AC3F8082500BF02B02B
:1030F400704782B001900091019B009AC3F80C259F
:1031040000BF02B0704700B589B001900091002360
:103114008DF81F3050E09DF81F30009AD35C8DF875
:103124001E309DF81E30FF2B38D09DF81E3003F062
:103134008003002B14BF012300238DF81D309DF85C
:103144001F309DF81E2022F080029B0008A90B442A
:1031540043F8142C9DF81D30002B0AD09DF81F3025
:103164009B0008AA134453F8143C1846FFF78FFF3A
:1031740009E09DF81F309B0008AA134453F8143C3F
:103184001846FFF798FF9DF81F309B0008AA1344C8
:1031940053F8143C1846FFF769FF08E09DF81F3008
:1031A4009B0008AA13444FF0FF3243F8142C9DF8F7
:1031B4001F3001338DF81F309DF81F30032BAAD91F
:1031C400019B1B6803AA11461846FFF7A3FD00BF25
:1031D40009B05DF804FB000000B587B003900291CC
:1031E4000192029B002B03D13A498620FEF736F95F
:1031F400039B1B79DB00384A13440593059B1B7919
:10320400DBB2002B03D008230493049B5DE0059BF1
:10321400019A1A6002990398FFF775FF039B1B68D4
:103224001846FFF76EFD039B1868029B5979029BB1
:103234009A79029B1B89FFF78DFD039B1868029BFB
:10324400997A029BDB7A1A46FFF792FE039B1B686E
:1032540000211846FFF741FD039B1B680021184617
:10326400FFF745FD039B1B684FF48E711846FFF76B
:103274000DFD039B1B684FF488711846FFF706FD8C
:10328400039B1B684FF48A711846FFF7FFFC039BEE
:103294001B684FF482711846FFF7F8FC059B1B6806
:1032A400002B0CD0039B1B681846FFF782FE0346D5
:1032B4001A46029B1B7919461046FEF7F1F9059B45
:1032C40001221A7100230493049B184607B05DF889
:1032D40004FB00BF58920000600B002000B587B0CB
:1032E4000390029111461A460B468DF80730134697
:1032F4008DF80630029B02221A71029B9DF807206A
:103304005A71029B1B68002B25D0822305939DF8DC
:10331400073003F00403002B03D0059B43F0100394
:1033240005939DF8073003F00803002B03D0059B99
:1033340043F0200305939DF8073003F01003002B9E
:1033440003D0059B23F080030593039B1B68059919
:103354001846FFF7CCFC039B1B684FF48271184698
:10336400FFF794FC9DF90730002B0ADA039B1B68D6
:103374009DF8062011461846FFF77CFC0490049B38
:1033840008E0039B1B689DF8062011461846FFF7CA
:1033940063FC0023184607B05DF804FB00B589B050
:1033A4000390029100931346ADF80630039B1B79FA
:1033B400DB003C4A13440693069B1B79DBB2002BCB
:1033C40004D139494FF48F70FEF748F8BDF8063040
:1033D400002B04D1344940F21F10FEF73FF8029B42
:1033E4001B681846FFF7F0FD0346002B04D12E4955
:1033F4004FF49070FEF732F8039B1B68029A002189
:103404001846FFF7D5FC039B1B68029A0121184656
:10341400FFF7CEFCBDF8063003F00103002B14BF08
:10342400012300238DF81730039B1868BDF806307C
:103434005B089AB29DF817309BB213449BB21946AD
:10344400FFF7AAFD009B03F00103002B02D0102319
:1034540007930FE0009B03F00203002B08D09DF8B4
:103464001730002B01D0082300E00423079301E068
:1034740000230793039B1B6807991846FFF72DFC4D
:10348400009BDAB29DF81730002B01D00C2300E02A
:10349400082306990398FFF721FF0346184609B04D
:1034A4005DF804FB600B00205892000000B583B067
:1034B400019000914FF488710198FFF7FCFB0346DB
:1034C400002B12D04FF488710198FFF7DFFB009BAB
:1034D4005B7903F00403002B07D0009B1B68002BCF
:1034E40003D0009B1B68012098474FF48A71019810
:1034F400FFF7E1FB0346002B12D04FF48A710198C9
:10350400FFF7C4FB009B5B7903F00803002B07D093
:10351400009B1B68002B03D0009B1B68022098476C
:103524004FF48E710198FFF7C6FB0346002B12D0AF
:103534004FF48E710198FFF7A9FB009B5B7903F0B0
:103544001003002B07D1009B1B68002B03D0009BAA
:103554001B68002098474FF482710198FFF7ABFB7A
:103564000346002B0FD04FF482710198FFF78EFBB6
:10357400009B01221A71009B1B68002B03D0009B47
:103584001B680320984700BF03B05DF804FB0000EC
:1035940008B503490348FFF789FF00BF08BD00BF12
:1035A400600B002000C0014008B503490348FFF741
:1035B4007DFF00BF08BD00BF680B00200010024063
:1035C40008B503490348FFF771FF00BF08BD00BFFA
:1035D400700B00200020024082B001900B468DF851
:1035E40003309DF80330019A134401221A6000BF8E
:1035F40002B0704784B001900B46ADF80230BDF8BC
:103604000230019A134400221A60BDF80230019A74
:1036140013441B680393039B00BF04B0704782B03C
:1036240001900B46ADF80230BDF80230019A134404
:103634001B68002B14BF01230023DBB2184602B021
:10364400704782B001900091019B009AC3F8042353
:1036540000BF02B0704782B001900091019B009AB4
:10366400C3F8082300BF02B0704782B00190019BE9
:103674000722C3F8002500BF02B0704784B003904E
:10368400029101920093039B029AC3F80825039BBD
:10369400019AC3F80C25039B009AC3F8102500BFB8
:1036A40004B0704782B001900091009A019BC3F866
:1036B400242500BF02B0704784B0039002911346E2
:1036C4008DF80730029A039BC3F844259DF8072020
:1036D400039BC3F8482500BF04B0704784B003902F
:1036E400029113468DF80730029A039BC3F83425E0
:1036F4009DF80720039BC3F8382500BF04B070472A
:1037040084B001900B468DF8033013468DF80230D7
:103714009DF80230002B14BF01230023DBB2039376
:103724009DF80330022B09D0032B0CD0012B00D0C1
:103734000EE0039B43F00203039309E0039B43F071
:103744000403039304E0039B43F00603039300BFC5
:10375400019B039AC3F8542500BF04B0704782B09C
:1037640001900B468DF803309DF80320019BC3F8AC
:10377400C02500BF02B0704782B00190019B0122B6
:10378400C3F8502500BF02B0704782B00190019B7E
:103794000022C3F8502500BF02B0704782B00190E8
:1037A400019B0122C3F8402500BF02B0704782B0DC
:1037B4000190019B0022C3F8402500BF02B070476E
:1037C40082B00190019B03F06043B3F1005F0CBF32
:1037D40001230023DBB2184602B0704700B583B062
:1037E4000190019B1B681F2B04D905494FF4E87015
:1037F400FDF734FE4FF0A043184603B05DF804FB18
:10380400B892000000B585B00190084611461A46EA
:1038140003468DF803300B468DF8023013468DF8BD
:10382400013001AB1846FFF7D9FF0390019A9DF8C8
:1038340003109DF802305B0019439DF801309B0092
:1038440019439DF818301B0219439DF81C301B04C2
:103854001943039B02F5E07243F8221000BF05B040
:103864005DF804FB00B585B00390002301930023A9
:1038740000930023012201210398FFF7C3FF00BF37
:1038840005B05DF804FB00B585B003900B468DF8D8
:103894000B309DF80B200023019300230093134663
:1038A400002200210398FFF7ADFF00BF05B05DF8CB
:1038B40004FB00B585B0019001AB1846FFF78EFFFD
:1038C4000390019B012202FA03F31946039800F0C6
:1038D40018F800BF05B05DF804FB00B585B0019091
:1038E40001AB1846FFF77AFF0390019B012202FA0D
:1038F40003F31946039800F00EF800BF05B05DF815
:1039040004FB82B001900091019B009AC3F8082542
:1039140000BF02B0704782B001900091019B009AF1
:10392400C3F80C2500BF02B07047000000B58DB08D
:103934000590049103920293049B002B03D16249E6
:10394400A820FDF78BFD059B5B791A461346DB0027
:1039540013449B005D4A13440993099B1B7F002B6E
:1039640003D008230893089BAAE0059B1B68584AC8
:1039740011461846FDF752FE0346002B03D01123CF
:103984000893089B9CE0099B039A1A60099B029A7E
:103994005A60049B1B7B012B05D8049B1B7818469B
:1039A400FFF79BFF04E0049B1B781846FFF781FF99
:1039B400049B1B78184600230193002300930023E3
:1039C40000220121FFF71EFF049B5B78FF2B09D027
:1039D400049B5B780B930B98FFF77FFF0B98FFF723
:1039E40041FF02E04FF0FF330B93049B9B78FF2BC6
:1039F40007D0049B9B780A9301210A98FFF743FFA1
:103A040002E04FF0FF330A93049BDB78FF2B09D0CD
:103A1400049BDB781846FFF74CFF049BDB781846C1
:103A2400FFF720FF059B5B791946049BD878274A4A
:103A34000B46DB000B449B0013441E3302461A70F2
:103A4400059B1B680793049B1B7819460A9B0B9ADA
:103A54000798FFF713FE049B9B6819460798FFF726
:103A640021FE049B197B049B5B7B1A460798FFF796
:103A740047FE049B5B7919460798FFF770FE099B84
:103A84001B68002B03D040210798FFF7DAFD079845
:103A9400FFF7EBFD099B1B68002B08D0059B93F9EE
:103AA4000420049B1B7919461046FDF7F9FD099B78
:103AB40000225A77099B01221A7700230893089B56
:103AC40018460DB05DF804FBF0920000780B00205E
:103AD400013E000000B589B00390029100931346A3
:103AE4008DF80730029B0493009B06939DF80730E2
:103AF4008DF814309DF828308DF81C3004AB00226A
:103B04001946039800F0D8F80346184609B05DF842
:103B140004FB00B583B00190019B9B7FFF2B04D075
:103B2400019B9B7F1846FFF7C4FE019B00225A7736
:103B3400019B00221A72019B1B68019A02F1080082
:103B4400019A52681146984700BF03B05DF804FB20
:103B540000B583B001900B468DF803309DF8033017
:103B640083F00103DBB2002B04D040210198FFF75E
:103B740072FD03E040210198FFF763FD00BF03B02D
:103B84005DF804FB00B583B001900091009B03F045
:103B94000103002B03D00198FFF7EEFD02E001982A
:103BA400FFF7F3FD009B03F00203002B03D0019801
:103BB400FFF7F4FD02E00198FFF7F9FD00BF03B041
:103BC4005DF804FB00B587B0039002910192009365
:103BD400019B1B68002B0AD0019B1B681846FFF74A
:103BE400EFFD034683F00103DBB2002B0ED1019BF2
:103BF4009B68002B11D0019B9B681846FFF7E0FDE2
:103C0400034683F00103DBB2002B06D0029B0022A3
:103C14005A7710230593059B4AE0019B1968019B81
:103C24001B791A460398FFF747FD019B9968019B8E
:103C34001B7B1A460398FFF751FD4FF48C710398D0
:103C4400FFF7D8FC00990398FFF79CFF009B03F053
:103C54000803002B03D110210398FFF7BDFC029B3E
:103C64001B68002B15D100BF4FF48C710398FFF72C
:103C7400D6FC034683F00103DBB2002BF4D1029B94
:103C84009B7FFF2B11D0029B9B7F1846FFF711FEF1
:103C94000BE0009B03F00403002B0CBF0123002363
:103CA400DBB219460398FFF753FF00230593059BE6
:103CB400184607B05DF804FB10B586B00390029176
:103CC4000192039B5B791A461346DB0013449B0065
:103CD400364A13440593059B1B7F002B04D13449BA
:103CE40040F25720FDF7BAFB029B1B68002B08D15A
:103CF400029B1B79002B04D02D494FF41670FDF75D
:103D0400ADFB029B9B68002B08D1029B1B7B002B05
:103D140004D0274940F25920FDF7A0FB0023049367
:103D2400059B5B7FDBB2002B03D011230493049B20
:103D340039E0059B1B68002B07D0019B03F014039B
:103D4400002B02D1059B01225A77059B029A03F1AD
:103D54000C0413460FCB84E80F00059A92F8213027
:103D64006FF3000382F82130059A92F821306FF343
:103D7400410382F82130059A92F821306FF38203CF
:103D840082F82130059B9B7FFF2B04D0059B9B7FF2
:103D94001846FFF7A2FD039B1868019B029A059938
:103DA400FFF710FF0346184606B010BD780B00203D
:103DB400F092000000B583B0019000914FF48C7133
:103DC4000198FFF72CFC0346002B10D04FF48C71A4
:103DD4000198FFF70FFC009B1B68002B04D10649D8
:103DE40040F2BE20FDF73AFB0098FFF792FE00BFB9
:103DF40003B05DF804FB00BFF092000000B583B08F
:103E0400044B019301990448FFF7D4FF00BF03B0AA
:103E14005DF804FB780B00200030004082B00346BC
:103E24008DF8073007499DF907305B099DF8072095
:103E340002F01F02012000FA02F241F8232000BF21
:103E440002B0704700E100E082B003468DF807300D
:103E540008499DF907305B099DF8072002F01F020D
:103E6400012000FA02F2603341F8232000BF02B0BF
:103E7400704700BF00E100E082B0034600918DF876
:103E840007309DF90730002B0CDA0D499DF80730F7
:103E940003F00F03043B009AD2B25201D2B20B4496
:103EA4001A7609E007499DF90730009AD2B2520107
:103EB400D2B20B4483F8002300BF02B0704700BFA6
:103EC40000ED00E000E100E000B583B00190019B4B
:103ED4001B681F2B04D905494FF4E870FDF7BEFA9F
:103EE4004FF0A043184603B05DF804FB589300005C
:103EF40000B585B00190084611461A4603468DF870
:103F040003300B468DF8023013468DF8013001ABB7
:103F14001846FFF7D9FF0390019A9DF803109DF806
:103F240002305B0019439DF801309B0019439DF852
:103F340018301B0219439DF81C301B041943039BC2
:103F440002F5E07243F8221000BF05B05DF804FBEF
:103F540000B585B003900023019300230093002350
:103F6400012201210398FFF7C3FF00BF05B05DF8EC
:103F740004FB00B585B0019001AB1846FFF7A4FF20
:103F84000390019B012202FA03F31946039800F0FF
:103F940018F800BF05B05DF804FB00B585B00190CA
:103FA40001AB1846FFF790FF0390019B012202FA30
:103FB40003F31946039800F00EF800BF05B05DF84E
:103FC40004FB82B001900091019B009AC3F808257C
:103FD40000BF02B0704782B001900091019B009A2B
:103FE400C3F80C2500BF02B07047000084B00190F4
:103FF400244B0393019B002B40D0234B1A68039955
:10400400019B00BF00BF00BF00BF00BF00BF00BFD7
:1040140000BF8A422FD000BF00BF00BF00BF00BF57
:1040240000BF00BF00BF00BF00BF00BF00BF00BF94
:1040340000BF00BF00BF00BF00BF00BF00BF00BF84
:1040440000BF00BF00BF00BF00BF00BF00BF00BF74
:1040540000BF00BF00BF00BF00BF00BF00BF00BF64
:1040640000BF00BF00BF00BF00BF00BF00BF00BF54
:1040740000BF00BF00BF013BC3D1019300BF04B028
:10408400704700BF0024F4001C09002000B583B071
:104094000190019B4FF47A7202FB03F31846FFF779
:1040A400A5FF00BF03B05DF804FB000000B585B0B8
:1040B400019002238DF80F3034E09DF80F20134651
:1040C4005B001344234A98189DF80F305A1E134678
:1040D4005B0013441F4A13440322194604F026FBD1
:1040E4009DF80F300333D8B29DF80F2013465B00C0
:1040F4001344184A1344194601F034FC9DF80F3058
:10410400C3F10203D8B29DF80F2013465B00134499
:10411400104A1344194601F025FC9DF80F30013B69
:104124008DF80F309DF80F30002BC6D10322019972
:10413400084804F0FBFA0749032001F013FC054981
:10414400022001F00FFC01F025FC00BF05B05DF872
:1041540004FB00BFD433002000B585B00390029166
:104164000192ADF802300A4B1B68DAB2094B1B68A6
:10417400DBB20399029802F06DFBBDF802301A46D7
:104184000199039802F0E0FB00BF05B05DF804FB61
:104194009C2300200000002082B0084B9B68403321
:1041A4000193F1EE103A0093019B1B6823F09F02E8
:1041B400019B1A6000BF02B0704700BF30EF00E0FF
:1041C40086B0039002911346ADF80630039B002B92
:1041D4002ED0039B04930023ADF8163020E0BDF8E5
:1041E40016305B00BDF81620920004990A44126848
:1041F40007EE902AF8EEE77A0F4A9B001344C3EDCA
:10420400007ABDF816305B0001330B4A9B0013445F
:104214004FF000021A60BDF816300133ADF81630C5
:10422400BDF81630B3F5007FD9D3044B01221A70C0
:1042340000BF06B0704700BF9C0B0020A0230020E5
:10424400294B0422C3F86025274B0122C3F800251B
:10425400254B0022C3F80425234B0022C3F80C2568
:10426400214B0622C3F808251F4B0022C3F8102552
:104274001D4B1E4AC3F840251B4B0122C3F844259D
:10428400194B0022C3F84825174B0022C3F84C25CC
:10429400174B0C22C3F86025154B0122C3F80025E7
:1042A400134B0022C3F80425114B0022C3F80C253C
:1042B4000F4B4FF4C072C3F808250D4B0022C3F80E
:1042C40010250B4B0B4AC3F84025094B0122C3F8B8
:1042D4004425074B0022C3F84825054B0022C3F8A8
:1042E4004C2500BF704700BF001002400A000020A8
:1042F400002002400C000020034B0122DA60034B33
:104304000122DA6000BF7047001002400020024022
:1043140030B589B0274B6C461D460FCD0FC42B68B2
:10432400236017238DF80430FF238DF803300B230B
:104334008DF80130FF238DF8023003238DF800300F
:1043440001238DF806300023039302238DF80930EE
:1043540001238DF80A3000238DF807306B46164987
:104364001846FEF773F90790079B0693069B002BEC
:1043740005D0124A40F205110698FCF713F9002300
:104384004FF480620E490E48FEF7B8F90790079B78
:104394000593059B002B05D0084A4FF484710598BA
:1043A400FCF700F9FFF74CFFFFF7A6FF00BF09B0C9
:1043B40030BD00BFEC930000C541000090930000A5
:1043C400AC23002010B586B0144B01AC0FCB84E8AD
:1043D4000F0001A9002300221148FFF7A7FA059056
:1043E400059B002B05D00F4A4FF48F710598FCF7FD
:1043F400D9F81920FFF7BDFD1820FFF7BAFD0220F8
:10440400FFF7B7FD1920FFF7A3FD1820FFF7A0FD64
:104414000220FFF79DFD00BF06B010BD0094000010
:1044240054940000909300004FF080430122C3F89D
:1044340018254FF080430022C3F804214FF0804335
:1044440001229A6000BF4FF08043D3F80431002B5F
:10445400F9D000BF7047000082B003460A468DF8C9
:10446400073013468DF806309DF80630012B20D115
:104474009DF807300D3B032B1BD801A252F823F003
:10448400B144000095440000B1440000B144000070
:10449400094B1B780133DAB2074B1A70064B1B78B1
:1044A400032B05D9044B01221A7001E000BF00E080
:1044B40000BF00BF02B070470800002000B585B0FF
:1044C400FFF7B2FFFCF746FE4FF4A4720421104834
:1044D400FBF7CAFF0390039B0293029B002B05D0BA
:1044E4000C4A40F2A9110298FCF75CF8FCF72EF88C
:1044F4000390039B0193019B002B05D0054A4FF4C5
:10450400D6710198FCF74EF800BF05B05DF804FBC6
:104514005C940000909300000FB400B5A3B025ABE9
:10452400009301A8009B249A802104F0F1F801ABC8
:10453400219307E0219B1B78184600F0B3FC219BD4
:1045440001332193219B1B78002BF3D100BF23B0AF
:104554005DF804EB04B0704700B583B00190019B93
:104564001B78012B03D0022B04D0002B03E003F0B3
:10457400E9FD00E000BF00BF03B05DF804FB4FF0AD
:1045840080430022C3F800214FF0804301221A60C7
:1045940000BF4FF08043D3F80031002BF9D000BFA7
:1045A4007047000030B591B0454B1B680993454BEB
:1045B4001B680893444A06AB92E8030083E80300AF
:1045C400424B6C461D460FCD0FC495E8030084E8AA
:1045D400030004238DF80A3001238DF800300423EE
:1045E400ADF80E30FA23ADF80C3003238DF8083003
:1045F400374B019300238DF8013000238DF81430DC
:1046040003238DF813306B46184603F0C5FB0F9057
:104614000F9B0E930E9B002B05D02E4A4FF4F37183
:104624000E98FBF7BFFF09AB184603F0ABFD0F90E4
:104634000F9B0D930D9B002B05D0264A40F2E911E8
:104644000D98FBF7AFFF08AB184603F0D9FD0F90A8
:104654000F9B0C930C9B002B05D01E4A4FF4F67154
:104664000C98FBF79FFF06AB0821184603F032FEB7
:104674000F900F9B0B930B9B002B05D0154A40F218
:10468400EF110B98FBF78EFF512003F09DFE0F9066
:104694000F9B0A930A9B002B05D00E4A4FF4F97125
:1046A4000A98FBF77FFF0C4B03221A700A4B002277
:1046B4005A70094B0122DA7000BF11B030BD00BF3F
:1046C400109400001494000018940000209400003A
:1046D4005D45000090930000AC33002010B584B019
:1046E4001120FFF735FC1220FFF732FC1320FFF7EF
:1046F4002FFC1420FFF72CFC1120FFF73AFC1220AA
:10470400FFF737FC1320FFF734FC1420FFF731FCCC
:104714001620FFF71DFC1620FFF73FFCFFF72FFFC5
:10472400FFF740FFFFF7F4FDFFF74CFE00223C21AA
:10473400022000F011FF4F4A4021802000F030FA9F
:104744000021012000F036FD1C2001F097F8FFF74E
:10475400B5FE07212620FFF78FFB2620FFF774FB09
:104764002620FFF75BFB01F009F84348FFF7D4FE6E
:1047740000F0B4FF4FF4FA60FFF788FC3F4B1B785E
:10478400002BFBD01120FFF708FC4FF400733C4AC8
:104794003C493D48FFF7E0FC3C4B1B781A4680231C
:1047A40093FBF2F319463A4B3A4A3B4801F0BAFC00
:1047B400384B93ED007A394BD3ED007AB4EEE77AB7
:1047C400F1EE10FA13DD354BD3ED007A9FED347A18
:1047D40027EE877A2F4BD3ED007ADFED326A67EE4E
:1047E400A67A77EE277A2D4BC3ED007A12E02B4B95
:1047F400D3ED007A9FED2C7A27EE877A254BD3ED03
:10480400007ADFED2A6A67EEA67A77EE277A234BE1
:10481400C3ED007A00F0B2FF0023ADF80E3095E04E
:1048240000238DF80D3085E0BDF80E300333144AB3
:104834009B00134493ED007A184BD3ED007AB4EE49
:10484400E77AF1EE10FA33DD104B1B789BB2BDF81A
:104854000E2012FB03F39AB29DF80D309BB2134461
:104864009BB218B201236FF03F02402100F0BBFA63
:104874005BE000BFAD53000038940000A02300208B
:104884009C1B0020C89500009C0B00200800002001
:10489400A8230020A4230020A81B0020040000203B
:1048A400CDCC4C3FCDCC4C3E3333733FCDCC4C3D83
:1048B400AC4B1B789BB2BDF80E2012FB03F39AB2EB
:1048C4009DF80D309BB213449BB218B2BDF80E3064
:1048D4000333A54A9B00134493ED007ABDF80E30D0
:1048E4000333A14A9B001344D3ED007A67EE277A81
:1048F4009FED9E7A67EE876A9D4B93ED007A9C4B01
:10490400D3ED007A27EE277AC6EE877AFDEEE77AB2
:10491400CDED017ABDF804301BB29BB25B429BB271
:104924001AB20123402100F05EFA9DF80D300133E4
:104934008DF80D308B4B1B789DF80D209A42FFF4B7
:1049440073AFBDF80E300133ADF80E30BDF80E2054
:10495400844B1B781946802393FBF1F39A42FFF6AC
:104964005FAF00F0BBFE7F4B1B781A46802393FB9E
:10497400F2F3804A82FB0312DB17D31A19467E4BEB
:104984007E4A7F4801F0CEFB764B1B781A46802383
:1049940093FBF2F3774A82FB0312DB17D31A033338
:1049A4009B00714A98186F4B1B781A46802393FB1F
:1049B400F2F3704A82FB0312DB17D31A19466E4BCB
:1049C400704A01F0AFFB674B1B781A464FF48073B3
:1049D40093FBF2F3674A82FB0312DB17D31A033308
:1049E4009B00614A98185F4B1B781A46802393FBFF
:1049F400F2F3604A82FB0312DB17D31A19465E4BAB
:104A0400614A01F08FFB614B1B780133DAB25F4BD3
:104A14001A705A4B93ED007A584BD3ED007A27EE77
:104A2400277A534BD3ED006A514BD3ED007A66EEEF
:104A3400A77AC7EE276A16EE900A03F00DFD034627
:104A44000C4644EC113B9FED430B03F0F3FD51EC9A
:104A5400100B42A3D3E9002303F01AFD03460C46CE
:104A64001846214603F0E2FC0346DAB2484B1A70BA
:104A7400444B93ED007A434BD3ED007A27EE277A2B
:104A84003B4BD3ED006A3A4BD3ED007A66EEA77A3E
:104A9400C7EE276A16EE900A03F0DEFC03460C46C6
:104AA40044EC113B9FED2B0B03F0C4FD51EC100BB8
:104AB4002AA3D3E9002303F0EBFC03460C46184673
:104AC400214603F0B3FC0346DAB2314B5A702E4B45
:104AD40093ED007A2C4BD3ED007A27EE277A244B02
:104AE400D3ED006A224BD3ED007A66EEA77AC7EEC7
:104AF400276A16EE900A03F0AFFC03460C4644EC1A
:104B0400113B9FED140B03F095FD51EC100B13A317
:104B1400D3E9002303F0BCFC03460C4618462146A7
:104B240003F084FC0346DAB2194B9A701848FFF775
:104B3400BDFA03221649174803F0F8FD164803F09E
:104B440073FA1120FFF715FA144B00221A7015E6B8
:104B5400AFF30080000000000000F03F0000000000
:104B640000E06F40080000209C1B002000008042F1
:104B74000400002056555555A8230020E03300209A
:104B8400A81B0020E4330020E8330020EC3300208D
:104B9400F0330020B1330020AC330020A0230020E8
:104BA40082B003460092ADF806300B46ADF80430EF
:104BB400184ABDF806301380164BB3F90020164B83
:104BC4001A80164ABDF804301380144BB3F9002040
:104BD400134B1A80134A009B1360134B00221A7064
:104BE400124B00221A80114BB3F90020104B1A808B
:104BF400104B01221A70104B4FF6FF721A800E4BA5
:104C04001A880E4B1A800E4B01221A7000BF02B094
:104C1400704700BFF4330020F8330020F63300203F
:104C2400FA3300200834002005340020FC3300202F
:104C3400FE3300200434002002340020003400201D
:104C44000634002010B588B00446084611461A46BA
:104C54002346ADF806300346ADF804300B46ADF8F4
:104C640002301346ADF80030BDF90020BDF9043020
:104C7400D31A184603F038FD0446BDF90220BDF9E5
:104C84000630D31A184603F02FFD03469C42CCBFCE
:104C940001230023DBB2ADF81A30BDF91A30002B22
:104CA40017D0BDF80630ADF81830BDF80430ADF8B3
:104CB4000630BDF81830ADF80430BDF80230ADF858
:104CC4001630BDF80030ADF80230BDF81630ADF83E
:104CD4000030BDF90620BDF902309A4217DDBDF857
:104CE4000630ADF81430BDF80230ADF80630BDF82A
:104CF4001430ADF80230BDF80430ADF81230BDF810
:104D04000030ADF80430BDF81230ADF80030BDF815
:104D14000220BDF80630D31A9BB2ADF81030BDF9AD
:104D24000020BDF90430D31A184603F0DDFC034615
:104D3400ADF80E30BDF91030DA0F13445B10ADF846
:104D44001E30BDF90420BDF900309A4203DA012374
:104D5400ADF81C303EE04FF6FF73ADF81C3039E07F
:104D6400BDF91A30002B09D0BDF82820BDF9061072
:104D7400BDF90430184600F043FA08E0BDF82820D5
:104D8400BDF90410BDF90630184600F039FABDF833
:104D94001E20BDF80E30D31A9BB2ADF81E30BDF9FB
:104DA4001E30002B0FDABDF80420BDF81C3013446C
:104DB4009BB2ADF80430BDF81E20BDF8103013448A
:104DC4009BB2ADF81E30BDF906309BB201339BB2E5
:104DD400ADF80630BDF90620BDF902309A42BFDDB8
:104DE40000BF08B010BD10B584B004460846114693
:104DF4001A462346ADF80E300346ADF80C300B4688
:104E0400ADF80A301346ADF80830BDF80C20BDF8F3
:104E14000A3013449BB2013B9BB21CB2BDF90E2075
:104E2400BDF90C10BDF90E00BDF8083000932346FF
:104E3400FFF708FF00BF04B010BD10B584B00446EE
:104E4400084611461A462346ADF806300346ADF827
:104E540004300B46ADF802301346ADF80030BDF80F
:104E64000630ADF80E3010E0BDF81830BDF9002062
:104E7400BDF90410BDF90E00FFF7B5FFBDF90E3002
:104E84009BB201339BB2ADF80E30BDF90E20BDF9D3
:104E94000610BDF902300B449A42E5DB00BF04B0B2
:104EA40010BD000030B585B003468DF80F309DF875
:104EB4000F300A2B11D1324B1B789BB2DB009AB214
:104EC400304BB3F900309BB213449BB21AB22D4B52
:104ED4001A802D4B00221A804FE09DF80F300D2BC5
:104EE4004BD0294BB3F90000264BB3F90010274BE4
:104EF4001D88274B1B88224A12789DF80F40019287
:104F040000932B46224600F049F81D4B1B789BB2B8
:104F14001A46520013445B009AB21B4BB3F900309B
:104F24009BB213449BB21AB2174B1A80194B1B78CD
:104F3400002B22D0144BB3F900301946164BB3F9A9
:104F4400003018460E4B1B781A46134692009B1AE3
:104F54005B000344994210DD094B1B789BB2DB00D4
:104F64009AB2084BB3F900309BB213449BB21AB205
:104F7400044B1A80044B00221A8000BF05B030BDD8
:104F840004340020FE330020FC33002000340020D1
:104F94000234002006340020F833002010B586B017
:104FA4000446084611461A462346ADF80E30034619
:104FB400ADF80C300B468DF80B301346ADF80830C5
:104FC400794BB3F90030BDF90E209A4280F2E980A2
:104FD400764BB3F90030BDF90C209A4280F2E1809F
:104FE400BDF90E109DF8242013469B0013440B4476
:104FF400013B002BC0F2D580BDF90C209DF8243074
:10500400DB001344013B002BC0F2CB8000238DF85E
:105014001730C0E09DF91730052B03D100238DF81C
:1050240016300BE09DF80B2013469B001A449DF9A3
:10503400173013445E4AD35C8DF8163000238DF884
:1050440015309CE09DF8163003F00103002B42D08C
:105054009DF82430012B15D19DF917309AB2BDF873
:105064000E3013449BB218B29DF915309AB2BDF8B4
:105074000C3013449BB21BB2BDF80820194600F053
:10508400BFF870E09DF917309AB29DF824309BB2B6
:1050940012FB03F39AB2BDF80E3013449BB218B25C
:1050A4009DF915309AB29DF824309BB212FB03F39C
:1050B4009AB2BDF80C3013449BB219B29DF8243057
:1050C4001AB29DF824301CB2BDF808300093234670
:1050D400FFF7B3FE47E0BDF82020BDF808309A4240
:1050E40041D09DF82430012B15D19DF917309AB287
:1050F400BDF80E3013449BB218B29DF915309AB224
:10510400BDF80C3013449BB21BB2BDF820201946E5
:1051140000F076F827E09DF917309AB29DF8243014
:105124009BB212FB03F39AB2BDF80E3013449BB248
:1051340018B29DF915309AB29DF824309BB212FB37
:1051440003F39AB2BDF80C3013449BB219B29DF824
:1051540024301AB29DF824301CB2BDF820300093DC
:105164002346FFF76AFE9DF816305B088DF816306B
:105174009DF91530DBB20133DBB28DF815309DF9A2
:105184001530072B7FF75EAF9DF91730DBB2013383
:10519400DBB28DF817309DF91730052B7FF73AAF46
:1051A40000E000BF06B010BDF8330020FA33002041
:1051B4001000002082B003460A46ADF806301346BC
:1051C400ADF80430054ABDF806301380044ABDF832
:1051D4000430138000BF02B0704700BF00340020C9
:1051E40002340020054B1B7803F00303DAB2034BAF
:1051F4001A70024B1B781846704700BF0534002014
:1052040000B583B00346ADF806300B46ADF8043064
:105214001346ADF80230084B1B68002B08D0064B30
:105224001B68BDF80220BDF90410BDF906009847BB
:1052340000BF03B05DF804FB0834002000B583B060
:105244000190019B1B681F2B04D905494FF4E8709A
:10525400FCF704F94FF0A043184603B05DF804FBD3
:105264007C94000000B585B0019001AB1846FFF7AF
:10527400E5FF0390019B012202FA03F31946039808
:1052840000F018F800BF05B05DF804FB00B585B068
:10529400019001AB1846FFF7D1FF0390019B012257
:1052A40002FA03F31946039800F00EF800BF05B0A4
:1052B4005DF804FB82B001900091019B009AC3F851
:1052C400082500BF02B0704782B001900091019B95
:1052D400009AC3F80C2500BF02B0704784B0019057
:1052E400244B0393019B002B40D0234B1A68039952
:1052F400019B00BF00BF00BF00BF00BF00BF00BFD5
:1053040000BF8A422FD000BF00BF00BF00BF00BF54
:1053140000BF00BF00BF00BF00BF00BF00BF00BF91
:1053240000BF00BF00BF00BF00BF00BF00BF00BF81
:1053340000BF00BF00BF00BF00BF00BF00BF00BF71
:1053440000BF00BF00BF00BF00BF00BF00BF00BF61
:1053540000BF00BF00BF00BF00BF00BF00BF00BF51
:1053640000BF00BF00BF013BC3D1019300BF04B025
:10537400704700BF0024F4001C09002000B583B06E
:105384000190019B4FF47A7202FB03F31846FFF776
:10539400A5FF00BF03B05DF804FB802318467047E7
:1053A400402318467047000010B584B00346ADF89A
:1053B40006300B46ADF804301346ADF80230BDF9A3
:1053C4000630002BC0F2BF80BDF90640FFF7E5FFB1
:1053D40003469C4280F2B780BDF90430002BC0F232
:1053E400B280BDF90440FFF7DBFF03469C4280F224
:1053F400AA80FFF7F7FE0346022B1BD0032B30D005
:10540400012B46D1BDF80630ADF80E30BDF804309E
:10541400ADF80630BDF80E30ADF804304B4B1B68C8
:105424009AB2BDF80630D31A9BB2013B9BB2ADF8D9
:1054340006302EE0454B1B689AB2BDF80630D31AED
:105444009BB2013B9BB2ADF80630414B1B689AB24C
:10545400BDF80430D31A9BB2013B9BB2ADF80430C3
:1054640017E0BDF80630ADF80C30BDF80430ADF8E7
:105474000630BDF80C30ADF80430354B1B689AB2D9
:10548400BDF80430D31A9BB2013B9BB2ADF8043093
:1054940000BFBDF90620BDF90430002B00DA073344
:1054A400DB101BB2DB0113440293BDF80230012B65
:1054B40004D0022B30D0002B16D045E0254A029BA5
:1054C40013441B785AB2BDF8043003F007030121DA
:1054D40001FA03F35BB213435BB2D9B21D4A029BD8
:1054E40013440A461A702FE01A4A029B13441B788D
:1054F4005AB2BDF8043003F00703012101FA03F3A3
:105504005BB2DB435BB213405BB2D9B2114A029B7C
:1055140013440A461A7017E00E4A029B13441B7880
:105524005AB2BDF8043003F00703012101FA03F372
:105534005BB253405BB2D9B2064A029B13440A469B
:105544001A7000BF00E000BF04B010BD0C090020B9
:10555400100900200C05002000B583B003468DF827
:1055640007300B468DF8063013468DF805309DF94B
:105574000720414B1A709DF90620404B1A709DF884
:105584000530002B0ED00220FFF76CFE0120FFF740
:10559400F5FE0220FFF77AFE0A20FFF7EFFE022055
:1055A400FFF760FEAE2000F06BF8D52000F068F83D
:1055B400802000F065F8A82000F062F83F2000F099
:1055C4005FF8D32000F05CF8002000F059F8402088
:1055D40000F056F88D2000F053F89DF80730012BA9
:1055E40003D1102000F04CF802E0142000F048F839
:1055F400202000F045F8002000F042F8A12000F03F
:105604003FF8C82000F03CF8DA2000F039F8122006
:1056140000F036F8812000F033F89DF80730012BB4
:1056240003D19F2000F02CF802E0CF2000F028F8EE
:10563400D92000F025F89DF80730012B03D1222052
:1056440000F01EF802E0F12000F01AF8DB2000F070
:1056540017F8402000F014F8A42000F011F8A62058
:1056640000F00EF82E2000F00BF8AF2000F008F840
:1056740000BF03B05DF804FB0D3400200C3400209F
:1056840000B587B003468DF80F301920FFF7EAFD07
:105694001820FFF7FBFD1920FFF7F8FD0DF10F01AE
:1056A40000230093002301220A48FEF713FA059011
:1056B400059B0493049B002B05D0074A40F2671115
:1056C4000498FAF76FFF1920FFF7CCFD00BF07B06D
:1056D4005DF804FB54940000B494000000B587B056
:1056E4002120FFF7CDFF0020FFF7CAFF7F20FFF73F
:1056F400C7FF2220FFF7C4FF0020FFF7C1FF0720E8
:10570400FFF7BEFF1920FFF7ADFD1820FFF7AAFD34
:105714001920FFF7BBFD0023ADF816301BE0BDF8E0
:105724001630134A9918002300930023802211484D
:10573400FEF7D0F90490049B0393039B002B05D040
:105744000D4A4FF4F3710398FAF72CFFBDF81630A5
:105754008033ADF81630BDF81630B3F5806FDED364
:105764001920FFF77FFD00BF07B05DF804FB00BF01
:105774000C05002054940000B494000008B54FF4C4
:1057840080620021024802F0FBFF00BF08BD00BF99
:105794000C05002000B583B00190019B1B681F2BF2
:1057A40004D905494FF4E870FBF758FE4FF0A043C5
:1057B400184603B05DF804FB1C95000000B585B0E5
:1057C4000190084611461A4603468DF803300B46ED
:1057D4008DF8023013468DF8013001AB1846FFF7FF
:1057E400D9FF0390019A9DF803109DF802305B00E5
:1057F40019439DF801309B0019439DF818301B0292
:1058040019439DF81C301B041943039B02F5E072F5
:1058140043F8221000BF05B05DF804FB00B585B065
:10582400039000230193002300930023012201210C
:105834000398FFF7C3FF00BF05B05DF804FB00B594
:1058440085B0019001AB1846FFF7A4FF0390019BBC
:10585400012202FA03F31946039800F004F800BF8A
:1058640005B05DF804FB82B001900091019B009AA1
:10587400C3F80C2500BF02B07047000000B58BB020
:1058840003468DF807309DF807301846FFF7C6FF2A
:105894009DF807301846FFF7D2FF9DF807308DF8C2
:1058A4000C30FF238DF80D30FF238DF80E30FF23CD
:1058B4008DF80F3006238DF8103000238DF8113049
:1058C40000238DF812301223ADF8143000238DF824
:1058D400163000238DF8173003AB002219461D48FB
:1058E400FDF77AFC0790079B0693069B002B04D0D8
:1058F400194A3F210698FAF755FE0023099307E059
:10590400164A099B0D2122F81310099B01330993B0
:10591400099BBD2BF4D90023089308E00F4A089B88
:105924004FF4004122F81310089B01330893089B9D
:105934002C2BF3DD094B4FF40042A3F87A2100230A
:10594400012207490348FDF729FD00BF0BB05DF8AC
:1059540004FB00BF140900205495000010340020FB
:10596400B895000000B583B0034600918DF8073068
:105974009DF8072013465B001344054A1344032291
:105984000099184602F0D2FE00BF03B05DF804FB94
:105994008C35002000B583B000238DF80730C7E0B4
:1059A40000238DF8063037E09DF807206849134638
:1059B4005B0013440B4401331B781A469DF80630F0
:1059C40002FA03F303F08003002B10D09DF80720A4
:1059D40013465B001344DB0003F12D029DF80630EF
:1059E40013445C4A48F20D0122F813100FE09DF8AD
:1059F400072013465B001344DB0003F12D029DF8DE
:105A040006301344534A48F2050122F813109DF856
:105A1400063001338DF806309DF80630072BC3D9C4
:105A240000238DF8053038E09DF8072048491346D7
:105A34005B0013440B441B781A469DF8053002FAA8
:105A440003F303F08003002B11D09DF807201346C5
:105A54005B001344DB0003F12D029DF80530134471
:105A640008333C4A48F20D0122F8131010E09DF867
:105A7400072013465B001344DB0003F12D029DF85D
:105A8400053013440833334A48F2050122F8131051
:105A94009DF8053001338DF805309DF80530072B4E
:105AA400C2D900238DF8043039E09DF80720284935
:105AB40013465B0013440B4402331B781A469DF8CB
:105AC400043002FA03F303F08003002B11D09DF895
:105AD400072013465B001344DB0003F12D029DF8FD
